:100000000C945D000C9485000C9485000C94850084
:100010000C9485000C9485000C9485000C9485004C
:100020000C9485000C9485000C9485000C9485003C
:100030000C9485000C9485000C9485000C9485002C
:100040000C948C020C9485000C9485000C94850013
:100050000C9485000C9485000C9485000C9485000C
:100060000C9485000C94850000000008000201003B
:100070000003040700000000000000000000000072
:10008000250028002B0000000000240027002A0083
:10009000040404040404040402020202020203032E
:1000A0000303030301020408102040800102040836
:1000B0001020010204081020610311241FBECFEF9D
:1000C000D8E0DEBFCDBF11E0A0E0B1E0EEE0F7E0A8
:1000D00002C005900D92A031B107D9F721E0A0E14F
:1000E000B1E001C01D92A133B207E1F710E0CDE508
:1000F000D0E004C02197FE010E947F03CC35D107D8
:10010000C9F70E94D6020C9485030C94000090E07D
:10011000FC01EC55FF4F249180579F4FFC018491C7
:10012000882399F090E0880F991FFC01EA57FF4F50
:10013000A591B491FC01E458FF4F859194918FB73C
:10014000F894EC91E22BEC938FBF0895AF92BF929D
:10015000CF92DF92EF92FF920F931F93CF93DF9393
:100160006C017B018B01040F151FEB015E01AE18C2
:10017000BF08C017D10759F06991D601ED91FC91E4
:100180000190F081E02DC6010995892B79F7C50111
:10019000DF91CF911F910F91FF90EF90DF90CF9063
:1001A000BF90AF90089590E0FC01E859FF4F249173
:1001B000FC01EC55FF4F3491FC01E057FF4FE491F7
:1001C000EE23C9F0222339F0233001F1A8F42130C5
:1001D00019F1223029F1F0E0EE0FFF1FE458FF4F34
:1001E000A591B4918FB7F894EC91611126C0309528
:1001F0003E233C938FBF08952730A9F02830C9F0E3
:10020000243049F7809180008F7D03C08091800069
:100210008F7780938000DFCF84B58F7784BDDBCF6D
:1002200084B58F7DFBCF8091B0008F778093B00035
:10023000D2CF8091B0008F7DF9CF3E2BDACF3FB780
:10024000F8948091150190911601A0911701B09139
:10025000180126B5A89B05C02F3F19F00196A11DD6
:10026000B11D3FBFBA2FA92F982F8827BC01CD0100
:10027000620F711D811D911D42E0660F771F881F5F
:10028000991F4A95D1F70895089590E080E0089568
:10029000CF93DF93EC0160E08E810E94D30061E098
:1002A0008E810E94D30060E08E810E94D3008BE893
:1002B00091E00197F1F7DF91CF910895CF92DF920E
:1002C000EF92FF920F931F93CF93DF936C017C010A
:1002D00087E0E80EF11CD0E0C0E0062F10E0B80186
:1002E0000C2E02C0759567950A94E2F76170F701CC
:1002F00081917F010E94D3002196C430D10579F706
:10030000C601DF91CF911F910F91FF90EF90DF9089
:10031000CF900C944801CF92DF92EF92FF920F930F
:100320001F93CF93DF93EC01F62E642F8C810E94F4
:10033000D3008D818F3F19F060E00E94D3000F2D14
:1003400010E08F8584FF25C06E0187E0C80ED11CA8
:10035000F12CE12CB8010E2C02C0759567950A941A
:10036000E2F76170F60181916F010E94D300FFEF07
:10037000EF1AFF0A88E0E816F10461F7CE01DF9179
:10038000CF911F910F91FF90EF90DF90CF900C9441
:100390004801B80184E0759567958A95E1F7CE012B
:1003A0000E945E016F2DCE01DF91CF911F910F91C1
:1003B000FF90EF90DF90CF900C945E0140E0682FAB
:1003C00089E191E00C948B01CF93DF93823029F483
:1003D0009091280198609093280180932C011092AD
:1003E0002D0180E480932E0180E180932F0180E530
:1003F0008093300180911D010E94870080911E0131
:100400008F3F11F00E94870080911F010E9487009A
:10041000C9E1D1E09E01295131408091280184FD3C
:100420000AC084E090E02196281739073CF48E81B9
:100430000E948700EFCF88E090E0F5CF8BE39DE04E
:100440000197F1F760E080911D010E94D30060E008
:1004500080911F010E94D30080911E018F3F19F0EF
:1004600060E00E94D3008091280184FD39C063E0E0
:1004700089E191E00E945E01CBE4D6E4CE010197D0
:10048000F1F763E089E191E00E945E012197F1F7C5
:1004900063E089E191E00E945E0183E592E00197CB
:1004A000F1F762E089E191E00E945E01809128010C
:1004B00080620E94DE0184E0809329018CE00E942A
:1004C000DE0181E00E94DE018BE39FE10197F1F7FD
:1004D00082E080932A0186E0DF91CF910C94DE01C7
:1004E00080620E94DE018BE496E40197F1F780912F
:1004F000280180620E94DE0183E592E00197F1F716
:100500008091280180620E94DE01D0CF41E00E94EC
:100510008B0181E090E008951F920F920FB60F9229
:1005200011242F933F938F939F93AF93BF93809109
:10053000110190911201A0911301B0911401309119
:10054000100123E0230F2D3758F50196A11DB11D91
:10055000209310018093110190931201A093130135
:10056000B09314018091150190911601A09117018B
:10057000B09118010196A11DB11D809315019093B2
:100580001601A0931701B0931801BF91AF919F91ED
:100590008F913F912F910F900FBE0F901F90189544
:1005A00026E8230F0296A11DB11DD2CF789484B501
:1005B000826084BD84B5816084BD85B5826085BD5F
:1005C00085B5816085BD80916E00816080936E00ED
:1005D00010928100809181008260809381008091DF
:1005E0008100816080938100809180008160809390
:1005F00080008091B10084608093B1008091B00050
:1006000081608093B00080917A00846080937A004A
:1006100080917A00826080937A0080917A00816074
:1006200080937A0080917A00806880937A0010929B
:10063000C10082E00E94E401C0E0D0E0E1E08091EE
:100640002C018111E0E0E195F0E0E75EFE4F848946
:1006500080680E94DE0143E050E06CE071E089E1D7
:1006600091E00E94A6008CE10E94DE010E941F0121
:100670006B017C0188EE882E83E0982EA12CB12C92
:100680000E941F016C197D098E099F09683E734005
:1006900081059105A8F321E0821A9108A108B1080B
:1006A00088EEC80E83E0D81EE11CF11C8114910471
:1006B000A104B10429F7209709F4C0CF0E940000DB
:1006C000BDCFE9E1F1E01382128284E091E09183F1
:1006D00080838DE084838FEF85838CE086838BE03D
:1006E00087838AE0808789E0818788E08287138614
:1006F000148615861686178681E00C94E401EE0FA9
:0E070000FF1F0590F491E02D0994F894FFCFAF
:10070E00000000008602A600450144014162690016
:107E0000112484B714BE81FFF0D085E080938100F7
:107E100082E08093C00088E18093C10086E0809377
:107E2000C20080E18093C4008EE0C9D0259A86E02C
:107E300020E33CEF91E0309385002093840096BBD3
:107E4000B09BFECF1D9AA8958150A9F7CC24DD24C4
:107E500088248394B5E0AB2EA1E19A2EF3E0BF2EE7
:107E6000A2D0813461F49FD0082FAFD0023811F036
:107E7000013811F484E001C083E08DD089C08234E0
:107E800011F484E103C0853419F485E0A6D080C0E4
:107E9000853579F488D0E82EFF2485D0082F10E0AE
:107EA000102F00270E291F29000F111F8ED06801E7
:107EB0006FC0863521F484E090D080E0DECF843638
:107EC00009F040C070D06FD0082F6DD080E0C81688
:107ED00080E7D80618F4F601B7BEE895C0E0D1E017
:107EE00062D089930C17E1F7F0E0CF16F0E7DF06D8
:107EF00018F0F601B7BEE89568D007B600FCFDCFD4
:107F0000A601A0E0B1E02C9130E011968C91119780
:107F100090E0982F8827822B932B1296FA010C0160
:107F200087BEE89511244E5F5F4FF1E0A038BF0790
:107F300051F7F601A7BEE89507B600FCFDCF97BE46
:107F4000E89526C08437B1F42ED02DD0F82E2BD052
:107F50003CD0F601EF2C8F010F5F1F4F84911BD097
:107F6000EA94F801C1F70894C11CD11CFA94CF0C13
:107F7000D11C0EC0853739F428D08EE10CD085E9AC
:107F80000AD08FE07ACF813511F488E018D01DD067
:107F900080E101D065CF982F8091C00085FFFCCF94
:107FA0009093C60008958091C00087FFFCCF809118
:107FB000C00084FD01C0A8958091C6000895E0E648
:107FC000F0E098E1908380830895EDDF803219F02E
:107FD00088E0F5DFFFCF84E1DECF1F93182FE3DFCA
:107FE0001150E9F7F2DF1F91089580E0E8DFEE27F6
:047FF000FF270994CA
:027FFE00040479
:0400000300007E007B
:00000001FF
