:100000000C945D000C9485000C9485000C94850084
:100010000C9485000C9485000C9485000C9485004C
:100020000C9485000C9485000C9485000C9485003C
:100030000C9485000C9485000C9485000C9485002C
:100040000C94A5020C9485000C9485000C948500FA
:100050000C9485000C9485000C9485000C9485000C
:100060000C9485000C9485000000000024002700FB
:100070002A0000000000250028002B0004040404CE
:100080000404040402020202020203030303030342
:10009000010204081020408001020408102001021F
:1000A00004081020000000080002010000030407FB
:1000B0000000000000000000E30311241FBECFEF8A
:1000C000D8E0DEBFCDBF11E0A0E0B1E0E2E1F8E0B2
:1000D00002C005900D92A233B107D9F721E0A2E347
:1000E000B1E001C01D92A335B207E1F710E0CDE504
:1000F000D0E004C02197FE010E940104CC35D10755
:10010000C9F70E94EF020C9407040C940000AF9210
:10011000BF92CF92DF92EF92FF920F931F93CF93F4
:10012000DF936C017B018B01040F151FEB015E0156
:10013000AE18BF08C017D10759F06991D601ED91EB
:10014000FC910190F081E02DC6010995892B79F78A
:10015000C501DF91CF911F910F91FF90EF90DF903C
:10016000CF90BF90AF90089590E0FC01EC55FF4F09
:100170002491FC01E057FF4F3491FC01E458FF4FFC
:10018000E491EE23C9F0222339F0233001F1A8F4E1
:10019000213019F1223029F1F0E0EE0FFF1FEE5867
:1001A000FF4FA591B4918FB7F894EC91611126C0DF
:1001B00030953E233C938FBF08952730A9F0283017
:1001C000C9F0243049F7809180008F7D03C0809171
:1001D00080008F7780938000DFCF84B58F7784BDD8
:1001E000DBCF84B58F7DFBCF8091B0008F7780937C
:1001F000B000D2CF8091B0008F7DF9CF3E2BDACF07
:10020000CF93DF9390E0FC01E057FF4F2491845897
:100210009F4FFC0184918823D1F090E0880F991FB3
:10022000FC01E859FF4FA591B491FC01EE58FF4F36
:10023000C591D49161110EC09FB7F8948C91E22FB3
:10024000E0958E238C932881E223E8839FBFDF9182
:10025000CF9108958FB7F894EC91E22BEC938FBF78
:10026000F6CF3FB7F8948091370190913801A09173
:100270003901B0913A0126B5A89B05C02F3F19F06E
:100280000196A11DB11D3FBFBA2FA92F982F882716
:10029000BC01CD01620F711D811D911D42E0660FF1
:1002A000771F881F991F4A95D1F70895089590E008
:1002B00080E00895CF93DF93EC0160E08E810E948F
:1002C000B40061E08E810E94B40060E08E810E94E3
:1002D000B4008BE891E00197F1F7DF91CF91089599
:1002E000CF92DF92EF92FF920F931F93CF93DF9302
:1002F0006C017C0187E0E80EF11CD0E0C0E0062F25
:1003000010E0B8010C2E02C0759567950A94E2F7CB
:100310006170F70181917F010E94B4002196C43081
:10032000D10579F7C601DF91CF911F910F91FF9011
:10033000EF90DF90CF900C945A01CF92DF92EF9222
:10034000FF920F931F93CF93DF93EC01F62E642F50
:100350008C810E94B4008D818F3F19F060E00E9473
:10036000B4000F2D10E08F8584FF25C06E0187E05B
:10037000C80ED11CF12CE12CB8010E2C02C07595D1
:1003800067950A94E2F76170F60181916F010E940E
:10039000B400FFEFEF1AFF0A88E0E816F10461F7F6
:1003A000CE01DF91CF911F910F91FF90EF90DF90E1
:1003B000CF900C945A01B80184E0759567958A95A1
:1003C000E1F7CE010E9470016F2DCE01DF91CF9138
:1003D0001F910F91FF90EF90DF90CF900C947001E0
:1003E00040E0682F8BE391E00C949D0181E00E9436
:1003F000F0018BE39FE10197F1F70895CF93DF932D
:10040000823029F490914A01986090934A01809338
:100410004E0110924F0180E48093500180E180935F
:10042000510180E58093520161E080913F010E947B
:100430000001809140018F3F19F061E00E940001AE
:1004400061E0809141010E940001CBE3D1E09E0177
:100450002B53314080914A0184FD0BC084E090E031
:1004600021962817390744F461E08E810E9400012B
:10047000EECF88E090E0F4CF8BE39DE00197F1F7B9
:1004800060E080913F010E94B40060E080914101F2
:100490000E94B400809140018F3F19F060E00E94FB
:1004A000B40080914A0184FD34C063E08BE391E0A5
:1004B0000E947001CBE4D6E4CE010197F1F763E02E
:1004C0008BE391E00E9470012197F1F763E08BE3E9
:1004D00091E00E94700183E592E00197F1F762E0FC
:1004E0008BE391E00E94700180914A0180620E943A
:1004F000F00184E080934B018CE00E94F0010E94A7
:10050000F60182E080934C0186E0DF91CF910C945C
:10051000F00180620E94F0018BE496E40197F1F70C
:1005200080914A0180620E94F00183E592E0019788
:10053000F1F780914A0180620E94F001D5CF41E03D
:100540000E949D0181E090E008951F920F920FB6E6
:100550000F9211242F933F938F939F93AF93BF9349
:100560008091330190913401A0913501B091360111
:100570003091320123E0230F2D3758F50196A11D4C
:10058000B11D209332018093330190933401A093E5
:100590003501B09336018091370190913801A091D7
:1005A0003901B0913A010196A11DB11D8093370127
:1005B00090933801A0933901B0933A01BF91AF9164
:1005C0009F918F913F912F910F900FBE0F901F9091
:1005D000189526E8230F0296A11DB11DD2CF78945D
:1005E00084B5826084BD84B5816084BD85B5826038
:1005F00085BD85B5816085BD80916E0081608093E9
:100600006E00109281008091810082608093810051
:100610008091810081608093810080918000816061
:10062000809380008091B10084608093B1008091BC
:10063000B00081608093B00080917A0084608093E4
:100640007A0080917A00826080937A0080917A00AB
:10065000816080937A0080917A00806880937A002C
:100660001092C10060E083E10E94000182E00E94DC
:10067000FE0161E087E00E94000161E086E00E94E7
:10068000000161E085E00E94000161E084E00E94D9
:10069000000161E083E00E94000115E4C0E0D0E0C9
:1006A0000E94F601E1E080914E018111E0E0E195C8
:1006B000F0E0E55CFE4F848980680E94F00140E133
:1006C00050E06CE071E08BE391E00E948700E091E4
:1006D0004E01E23008F063C0E150F0E0E55CFE4F0F
:1006E000848980680E94F00143E150E06DE171E08F
:1006F0008BE391E00E9487000E9431014B015C0175
:1007000088EEC82E83E0D82EE12CF12C0E94310116
:10071000681979098A099B09683E7340810591052A
:10072000A8F321E0C21AD108E108F10888EE880E8A
:1007300083E0981EA11CB11CC114D104E104F10492
:1007400029F70E94F60110937C0080917A00806462
:1007500080937A0080917A0086FDFCCF80917800AA
:1007600090917900843B9105E4F461E087E00E9478
:10077000B40061E086E00E94B40061E085E00E9480
:10078000B40061E084E00E94B40061E083E00E9474
:10079000B400209709F484CF0E94000081CFE1E0EB
:1007A0009CCF60E087E00E94B40060E086E00E9499
:1007B000B40060E085E00E94B40060E084E00E9444
:1007C000B40060E0E3CFEBE3F1E01382128284E057
:1007D00091E0918380838DE084838FEF85838CE02B
:1007E00086838BE087838AE0808789E0818788E041
:1007F00082871386148615861686178681E00C94E8
:10080000FE01EE0FFF1F0590F491E02D0994F8947E
:02081000FFCF18
:10081200000000009F0287005701560157454C43D4
:100822004F4D4520544F20534D4152540053545282
:10083200454554204C494748542053595354454D3B
:020842000000B4
:00000001FF
