:100000000C9462000C948A000C948A000C948A0070
:100010000C948A000C948A000C948A000C948A0038
:100020000C948A000C948A000C948A000C948A0028
:100030000C948A000C948A000C948A000C948A0018
:100040000C9451030C948A000C948A000C948A003E
:100050000C948A000C948A000C948A000C948A00F8
:100060000C948A000C948A000000000024002700F1
:100070002A0000000000250028002B0000000000DE
:1000800023002600290004040404040404040202DA
:100090000202020203030303030301020408102007
:1000A0004080010204081020010204081020000012
:1000B0000008000201000003040700000000000027
:1000C0000000F60411241FBECFEFD8E0DEBFCDBF85
:1000D00011E0A0E0B1E0ECE7FAE002C005900D927B
:1000E000A437B107D9F721E0A4E7B1E001C01D9220
:1000F000A539B207E1F710E0C2E6D0E004C02197CD
:10010000FE010E943605C136D107C9F70E949B0344
:100110000C943C050C940000AF92BF92CF92DF92FA
:10012000EF92FF920F931F93CF93DF936C017B01AC
:100130008B01040F151FEB015E01AE18BF08C0173D
:10014000D10759F06991D601ED91FC910190F081B0
:10015000E02DC6010995892B79F7C501DF91CF9173
:100160001F910F91FF90EF90DF90CF90BF90AF90D5
:100170000895833081F028F4813099F08230A9F01D
:1001800008958730A9F08830C9F08430B1F48091A7
:1001900080008F7D03C0809180008F7780938000E6
:1001A000089584B58F7784BD089584B58F7DFBCF86
:1001B0008091B0008F778093B00008958091B00057
:1001C0008F7DF9CF1F93CF93DF93282F30E0F90174
:1001D000E255FF4F8491F901E656FF4FD491F901A2
:1001E000EA57FF4FC491CC23A9F0162F81110E942A
:1001F000B900EC2FF0E0EE0FFF1FEE58FF4FA59176
:10020000B4918FB7F894EC91111108C0D095DE230A
:10021000DC938FBFDF91CF911F910895DE2BF8CF34
:10022000CF93DF9390E0FC01E656FF4F24918A576D
:100230009F4FFC0184918823D1F090E0880F991F93
:10024000FC01E859FF4FA591B491FC01EE58FF4F16
:10025000C591D49161110EC09FB7F8948C91E22F93
:10026000E0958E238C932881E223E8839FBFDF9162
:10027000CF9108958FB7F894EC91E22BEC938FBF58
:10028000F6CF3FB7F8948091790190917A01A091CF
:100290007B01B0917C0126B5A89B05C02F3F19F0CA
:1002A0000196A11DB11D3FBFBA2FA92F982F8827F6
:1002B000BC01CD01620F711D811D911D42E0660FD1
:1002C000771F881F991F4A95D1F708958F929F92A3
:1002D000AF92BF92CF92DF92EF92FF924B015C01FF
:1002E0000E9441016B017C010E9441016C197D0952
:1002F0008E099F09683E734081059105A8F321E0AE
:10030000821A9108A108B10888EEC80E83E0D81EB1
:10031000E11CF11C81149104A104B10429F7FF90A0
:10032000EF90DF90CF90BF90AF909F908F90089507
:10033000089590E080E008958F929F92AF92BF92CF
:100340000F931F93CF93DF93CDB7DEB7A1970FB66F
:10035000F894DEBF0FBECDBF19A2423008F44AE0C8
:100360008E010F5D1F4F842E912CB12CA12CA50165
:1003700094010E941405E62FB901CA01EA3044F540
:10038000E05DD801EE938D01232B242B252B79F7EB
:1003900090E080E0109769F0FD0101900020E9F7FE
:1003A0003197AF014A1B5B0BBD018DE791E00E94C5
:1003B0008C00A1960FB6F894DEBF0FBECDBFDF91C3
:1003C000CF911F910F91BF90AF909F908F90089504
:1003D000E95CD7CFFC0101900020E9F73197AF012C
:1003E000481B590BBC018DE791E00C948C00CF9316
:1003F000DF93EC0160E08E810E94E20061E08E817B
:100400000E94E20060E08E810E94E2008BE891E0B1
:100410000197F1F7DF91CF910895CF92DF92EF929C
:10042000FF920F931F93CF93DF936C017C0187E0C2
:10043000E80EF11CD0E0C0E0062F10E0B8010C2E51
:1004400002C0759567950A94E2F76170F701819192
:100450007F010E94E2002196C430D10579F7C601E0
:10046000DF91CF911F910F91FF90EF90DF90CF9090
:100470000C94F701CF92DF92EF92FF920F931F93AC
:10048000CF93DF93EC01F62E642F8C810E94E20063
:100490008D818F3F19F060E00E94E2000F2D10E087
:1004A0008F8584FF25C06E0187E0C80ED11CF12C1A
:1004B000E12CB8010E2C02C0759567950A94E2F7FD
:1004C0006170F60181916F010E94E200FFEFEF1A67
:1004D000FF0A88E0E816F10461F7CE01DF91CF91C1
:1004E0001F910F91FF90EF90DF90CF900C94F70148
:1004F000B80184E0759567958A95E1F7CE010E9471
:100500000D026F2DCE01DF91CF911F910F91FF90C2
:10051000EF90DF90CF900C940D0240E0682F8DE7B4
:1005200091E00C943A0281E00E948D028BE39FE1FE
:100530000197F1F70895CF93DF93823029F49091DA
:100540008C01986090938C0180939001109291019E
:1005500080E48093920180E18093930180E5809311
:10056000940161E0809181010E94100180918201DB
:100570008F3F19F061E00E94100161E080918301DA
:100580000E941001CDE7D1E09E012D5731408091AE
:100590008C0184FD0BC084E090E021962817390778
:1005A00044F461E08E810E941001EECF88E090E07B
:1005B000F4CF8BE39DE00197F1F760E0809181013A
:1005C0000E94E20060E0809183010E94E20080913D
:1005D00082018F3F19F060E00E94E20080918C015F
:1005E00084FD34C063E08DE791E00E940D02CBE40E
:1005F000D6E4CE010197F1F763E08DE791E00E9428
:100600000D022197F1F763E08DE791E00E940D0262
:1006100083E592E00197F1F762E08DE791E00E94B7
:100620000D0280918C0180620E948D0284E0809393
:100630008D018CE00E948D020E94930282E08093E3
:100640008E0186E0DF91CF910C948D0280620E9432
:100650008D028BE496E40197F1F780918C01806222
:100660000E948D0283E592E00197F1F780918C0161
:1006700080620E948D02D5CF90919001691710F091
:100680006FEF690FE62FF0E0E358FE4F9489890F72
:1006900080680C948D0241E00E943A0281E090E073
:1006A00008951F920F920FB60F9211242F933F932C
:1006B0008F939F93AF93BF93809175019091760133
:1006C000A0917701B09178013091740123E0230F5C
:1006D0002D3758F50196A11DB11D2093740180930B
:1006E000750190937601A0937701B0937801809182
:1006F000790190917A01A0917B01B0917C010196E2
:10070000A11DB11D8093790190937A01A0937B0183
:10071000B0937C01BF91AF919F918F913F912F91A9
:100720000F900FBE0F901F90189526E8230F02968A
:10073000A11DB11DD2CF789484B5826084BD84B5EB
:10074000816084BD85B5826085BD85B5816085BDCC
:1007500080916E00816080936E0010928100809184
:10076000810082608093810080918100816080930C
:100770008100809180008160809380008091B10031
:1007800084608093B1008091B00081608093B0005C
:1007900080917A00846080937A0080917A008260F0
:1007A00080937A0080917A00816080937A008091B2
:1007B0007A00806880937A001092C10060E083E143
:1007C0000E94100182E00E949B0261E087E00E948B
:1007D000100161E085E00E94100161E083E00E9469
:1007E000100160E081E00E941001CFEAD0E00BE947
:1007F00010E097E8E92E90E0F92E25E4A22E30E0F3
:10080000C32E30E0D32E0E949302FE018491F801A2
:10081000B490F7019490992009F4B6C081110E9418
:10082000B900E92DF0E0EE0FFF1FE458FF4FA5914E
:10083000B4918C91B82291E080E009F490E0892E87
:10084000982E60E080E00E943C038CE091E00E94E2
:10085000EA0161E080E00E943C038DE191E00E94AA
:10086000EA0168EE73E080E090E00E9466018A94FD
:10087000892809F08CC00E94930285E291E00E94D1
:10088000EA018CE10E948D0268EE73E080E090E066
:100890000E94660161E083E00E94E20064EF71E083
:1008A00080E090E00E946601A0927C0080917A0036
:1008B000806480937A0080917A0086FDFCCF8090DE
:1008C0007800909079000E94930260E080E00E949E
:1008D0003C0385E491E00E94EA0160E08CE00E9424
:1008E0003C032401092C000C660877084AE0C30188
:1008F000B20177FE0EC041E06DE28DE791E00E940B
:100900003A0266277727CB0164197509860997098A
:100910004AE00E949C0168EE73E080E090E00E9453
:10092000660189E7881691040CF44AC00E9493027C
:1009300061E085E00E94E20081E591E00E94EA0129
:100940008CE10E948D0268EE73E080E090E00E94EE
:10095000660161E087E00E94E2006CE271E080E005
:1009600090E00E94660160E087E00E94E2006CE295
:1009700071E080E090E00E946601C114D10409F4A6
:1009800042CF0E9400003FCF912C812C5ACF0E9471
:10099000930260E087E00E94E20060E080E00E9455
:1009A0003C0383E391E00E94EA018CE10E948D0206
:1009B00068EE73E080E090E00E94660160E06BCF3B
:1009C0000E94930260E085E00E94E20060E080E027
:1009D0000E943C038EE591E00E94EA018CE10E94B6
:1009E0008D0268EE73E080E090E0C5CFEDE7F1E0C6
:1009F0001382128284E091E0918380838DE084836E
:100A00008FEF85838CE086838BE087838AE0808705
:100A100089E0818788E0828713861486158616868A
:100A2000178681E00C949B02A1E21A2EAA1BBB1B25
:100A3000FD010DC0AA1FBB1FEE1FFF1FA217B307AA
:100A4000E407F50720F0A21BB30BE40BF50B661FC0
:100A5000771F881F991F1A9469F760957095809584
:100A600090959B01AC01BD01CF010895EE0FFF1FD2
:0C0A70000590F491E02D0994F894FFCF5C
:100A7C00000000004B038C00990198015645484931
:100A8C00434C452053455256494345200054455349
:100A9C0054494E470048656C6D657420576561720A
:100AAC0065640048656C6D6574206E6F74207765A5
:100ABC006172656400416C636F686F6C2056616C89
:100ACC000042757A7A6572206973204F4E00416C32
:100ADC00636F686F6C206E6F7420636F6E73756DCF
:040AEC00656400003D
:00000001FF
