:100000000C945D000C9485000C9485000C94850084
:100010000C9485000C9485000C9485000C9485004C
:100020000C9485000C9485000C9485000C9485003C
:100030000C9485000C9485000C9485000C9485002C
:100040000C947D020C9485000C9485000C94850022
:100050000C9485000C9485000C9485000C9485000C
:100060000C9485000C9485000000000024002700FB
:100070002A0000000000250028002B0004040404CE
:100080000404040402020202020203030303030342
:10009000010204081020408001020408102001021F
:1000A00004081020000000080002010000030407FB
:1000B0000000000000000000B70311241FBECFEFB6
:1000C000D8E0DEBFCDBF11E0A0E0B1E0E0E6FAE0AD
:1000D00002C005900D92A831B107D9F721E0A8E13F
:1000E000B1E001C01D92A933B207E1F710E0CDE500
:1000F000D0E004C02197FE010E942805CC35D1072D
:10010000C9F70E94C7020C942E050C940000AF9210
:10011000BF92CF92DF92EF92FF920F931F93CF93F4
:10012000DF936C017B018B01040F151FEB015E0156
:10013000AE18BF08C017D10759F06991D601ED91EB
:10014000FC910190F081E02DC6010995892B79F78A
:10015000C501DF91CF911F910F91FF90EF90DF903C
:10016000CF90BF90AF90089590E0FC01EC55FF4F09
:100170002491FC01E057FF4F3491FC01E458FF4FFC
:10018000E491EE23C9F0222339F0233001F1A8F4E1
:10019000213019F1223029F1F0E0EE0FFF1FEE5867
:1001A000FF4FA591B4918FB7F894EC91611126C0DF
:1001B00030953E233C938FBF08952730A9F0283017
:1001C000C9F0243049F7809180008F7D03C0809171
:1001D00080008F7780938000DFCF84B58F7784BDD8
:1001E000DBCF84B58F7DFBCF8091B0008F7780937C
:1001F000B000D2CF8091B0008F7DF9CF3E2BDACF07
:10020000CF93DF9390E0FC01E057FF4F2491845897
:100210009F4FFC0184918823D1F090E0880F991FB3
:10022000FC01E859FF4FA591B491FC01EE58FF4F36
:10023000C591D49161110EC09FB7F8948C91E22FB3
:10024000E0958E238C932881E223E8839FBFDF9182
:10025000CF9108958FB7F894EC91E22BEC938FBF78
:10026000F6CF089590E080E00895CF93DF93EC01FE
:1002700060E08E810E94B40061E08E810E94B40033
:1002800060E08E810E94B4008BE891E00197F1F765
:10029000DF91CF910895CF92DF92EF92FF920F936B
:1002A0001F93CF93DF936C017C0187E0E80EF11C74
:1002B000D0E0C0E0062F10E0B8010C2E02C075950A
:1002C00067950A94E2F76170F70181917F010E94BE
:1002D000B4002196C430D10579F7C601DF91CF91E2
:1002E0001F910F91FF90EF90DF90CF900C9435010C
:1002F000CF92DF92EF92FF920F931F93CF93DF93F2
:10030000EC01F62E642F8C810E94B4008D818F3F0A
:1003100019F060E00E94B4000F2D10E08F8584FF7B
:1003200025C06E0187E0C80ED11CF12CE12CB8016C
:100330000E2C02C0759567950A94E2F76170F6017C
:1003400081916F010E94B400FFEFEF1AFF0A88E06D
:10035000E816F10461F7CE01DF91CF911F910F9163
:10036000FF90EF90DF90CF900C943501B80184E0BE
:10037000759567958A95E1F7CE010E944B016F2D27
:10038000CE01DF91CF911F910F91FF90EF90DF9001
:10039000CF900C944B0140E0682F81E291E00C94E7
:1003A0007801CF93DF93823029F4909130019860E7
:1003B00090933001809334011092350180E4809352
:1003C000360180E18093370180E58093380161E058
:1003D000809125010E940001809126018F3F19F034
:1003E00061E00E94000161E0809127010E9400010C
:1003F000C1E2D1E09E01215231408091300184FD63
:100400000BC084E090E021962817390744F461E09E
:100410008E810E940001EECF88E090E0F4CF8BE364
:100420009DE00197F1F760E0809125010E94B40002
:1004300060E0809127010E94B400809126018F3FE7
:1004400019F060E00E94B4008091300184FD39C051
:1004500063E081E291E00E944B01CBE4D6E4CE015F
:100460000197F1F763E081E291E00E944B0121974F
:10047000F1F763E081E291E00E944B0183E592E0B5
:100480000197F1F762E081E291E00E944B018091D7
:10049000300180620E94CB0184E0809331018CE0C6
:1004A0000E94CB0181E00E94CB018BE39FE1019789
:1004B000F1F782E08093320186E0DF91CF910C94D6
:1004C000CB0180620E94CB018BE496E40197F1F7A7
:1004D0008091300180620E94CB0183E592E0019718
:1004E000F1F78091300180620E94CB01D0CF41E0D2
:1004F0000E94780181E090E008951F920F920FB65C
:100500000F9211242F933F938F939F93AF93BF9399
:1005100080911D0190911E01A0911F01B0912001B9
:1005200030911C0123E0230F2D3758F50196A11DB2
:10053000B11D20931C0180931D0190931E01A09377
:100540001F01B09320018091180190911901A09191
:100550001A01B0911B010196A11DB11D80931801D4
:1005600090931901A0931A01B0931B01BF91AF9111
:100570009F918F913F912F910F900FBE0F901F90E1
:10058000189526E8230F0296A11DB11DD2CFCF9357
:10059000DF93CDB7DEB7A1970FB6F894DEBF0FBEDD
:1005A000CDBF789484B5826084BD84B5816084BDFC
:1005B00085B5826085BD85B5816085BD80916E0001
:1005C000816080936E001092810080918100826032
:1005D000809381008091810081608093810080916F
:1005E00080008160809380008091B100846080935E
:1005F000B1008091B00081608093B00080917A005A
:10060000846080937A0080917A00826080937A007F
:1006100080917A00816080937A0080917A0080686E
:1006200080937A001092C10060E082E10E94000194
:1006300082E00E94D10184E4782E9AE0892E912CE8
:10064000A12CB12C00E010E070927C0080917A0027
:10065000806480937A0080917A0086FDFCCF60915F
:10066000780070917900072E000C880B990B0E947E
:100670000D0425EB37E348EF5EE30E9471040E940E
:10068000D5036B01E1E0809134018111E0E0E19557
:10069000F0E0EF5DFE4F848980680E94CB014BE063
:1006A00050E06CE071E081E291E00E948700E1E0BF
:1006B000809134018111E0E0E195F0E0EF5DFE4FC3
:1006C0008489835F80680E94CB010D2C000CEE08AA
:1006D000FF08F7FE36C041E06DE281E291E00E9442
:1006E000780122273327A9012C193D094E095F09FA
:1006F00019A2CE0181967C01CA01B901A50194011C
:100700000E940605605DF70162937F0121153105A6
:100710004105510589F7E114F10461F001900020D1
:10072000E9F73197AF014E195F09B70181E291E016
:100730000E9487000115110509F486CF0E94000070
:1007400083CFA701960119A2CE0181967C01CA012F
:10075000B901A50194010E940605605DF70162934D
:100760007F01211531054105510589F7D4CFE1E21B
:10077000F1E01382128284E091E0918380838DE026
:1007800084838FEF85838CE086838BE087838AE088
:10079000808789E0818788E08287138614861586A2
:1007A0001686178681E00C94D1010E94DC036894C0
:1007B000B1110C946B0408950E94500488F09F5767
:1007C00098F0B92F9927B751B0F0E1F0660F771F75
:1007D000881F991F1AF0BA95C9F714C0B13091F06B
:1007E0000E946A04B1E008950C946A04672F782F80
:1007F0008827B85F39F0B93FCCF386957795679530
:10080000B395D9F73EF490958095709561957F4F9B
:100810008F4F9F4F0895E89409C097FB3EF4909541
:100820008095709561957F4F8F4F9F4F9923A9F0C9
:10083000F92F96E9BB279395F69587957795679558
:10084000B795F111F8CFFAF4BB0F11F460FF1BC09C
:100850006F5F7F4F8F4F9F4F16C0882311F096E92F
:1008600011C0772321F09EE8872F762F05C06623DD
:1008700071F096E8862F70E060E02AF09A95660F96
:10088000771F881FDAF7880F9695879597F908954F
:1008900057FD9058440F551F59F05F3F71F0479531
:1008A000880F97FB991F61F09F3F79F08795089516
:1008B000121613061406551FF2CF4695F1DF08C035
:1008C000161617061806991FF1CF86957105610552
:1008D00008940895E894BB2766277727CB0197F9FA
:1008E00008950E9484040C94F5040E94E70438F0F3
:1008F0000E94EE0420F0952311F00C94DE040C9479
:10090000E40411240C946B040E94480470F3959F36
:10091000C1F3950F50E0551F629FF001729FBB27F6
:10092000F00DB11D639FAA27F00DB11DAA1F649F92
:100930006627B00DA11D661F829F2227B00DA11D45
:10094000621F739FB00DA11D621F839FA00D611DCB
:10095000221F749F3327A00D611D231F849F600DEC
:10096000211D822F762F6A2F11249F5750409AF015
:10097000F1F088234AF0EE0FFF1FBB1F661F771FA1
:10098000881F91505040A9F79E3F510580F00C946C
:10099000DE040C946B045F3FE4F3983ED4F3869539
:1009A00077956795B795F795E7959F5FC1F7FE2B0C
:1009B000880F911D9695879597F9089597F99F67E8
:1009C00080E870E060E008959FEF80EC08950024D7
:1009D0000A941616170618060906089500240A94A4
:1009E00012161306140605060895092E0394000C2A
:1009F00011F4882352F0BB0F40F4BF2B11F460FFB9
:100A000004C06F5F7F4F8F4F9F4F0895A1E21A2E52
:100A1000AA1BBB1BFD010DC0AA1FBB1FEE1FFF1FA2
:100A2000A217B307E407F50720F0A21BB30BE40BF2
:100A3000F50B661F771F881F991F1A9469F7609539
:100A40007095809590959B01AC01BD01CF010895F3
:100A5000EE0FFF1F0590F491E02D0994F894FFCF5D
:100A600000000000770287003201310154656D708B
:080A7000657261747572650086
:00000001FF
