:100000000C9461000C9473000C9473000C947300B6
:100010000C9473000C9473000C9473000C94730094
:100020000C9473000C9473000C9473000C94730084
:100030000C9473000C9473000C9473000C94730074
:100040000C947D010C9473000C9473000C94730059
:100050000C9473000C9473000C9473000C94730054
:100060000C9473000C94730000000000240027001F
:100070002A0000000000250028002B0000000000DE
:1000800023002600290004040404040404040202DA
:100090000202020203030303030301020408102007
:1000A0004080010204081020010204081020000012
:1000B0000008000201000003040700000000000027
:1000C000000011241FBECFEFD8E0DEBFCDBF21E07E
:1000D000A0E0B1E001C01D92A930B207E1F70E9493
:1000E000C7010C94E5020C940000833081F028F4E1
:1000F000813099F08230A9F008958730A9F08830D6
:10010000C9F08430B1F4809180008F7D03C080916C
:1001100080008F7780938000089584B58F7784BDA9
:10012000089584B58F7DFBCF8091B0008F77809349
:10013000B00008958091B0008F7DF9CFCF93DF9309
:10014000282F30E0F901E255FF4F8491F901E6567E
:10015000FF4FD491F901EA57FF4FC491CC23A1F08E
:1001600081110E947500EC2FF0E0EE0FFF1FE458A4
:10017000FF4FA591B491EC91ED2381E090E009F45B
:1001800080E0DF91CF91089580E090E0FACF1F9357
:10019000CF93DF93282F30E0F901E255FF4F849190
:1001A000F901E656FF4FD491F901EA57FF4FC49188
:1001B000CC23A9F0162F81110E947500EC2FF0E0DE
:1001C000EE0FFF1FEE58FF4FA591B4918FB7F89433
:1001D000EC91111108C0D095DE23DC938FBFDF9125
:1001E000CF911F910895DE2BF8CFCF93DF9390E04E
:1001F000FC01E656FF4F24918A579F4FFC018491E2
:100200008823D1F090E0880F991FFC01E859FF4F37
:10021000A591B491FC01EE58FF4FC591D4916111A5
:100220000EC09FB7F8948C91E22FE0958E238C93AB
:100230002881E223E8839FBFDF91CF9108958FB794
:10024000F894EC91E22BEC938FBFF6CF3FB7F89484
:100250008091050190910601A0910701B0910801DC
:1002600026B5A89B05C02F3F19F00196A11DB11D11
:100270003FBFBA2FA92F982F8827BC01CD01620F4D
:10028000711D811D911D42E0660F771F881F991F08
:100290004A95D1F708958F929F92AF92BF92CF92D5
:1002A000DF92EF92FF924B015C010E9426016B01ED
:1002B0007C010E9426016C197D098E099F09683E08
:1002C000734081059105A8F321E0821A9108A108E5
:1002D000B10888EEC80E83E0D81EE11CF11C811421
:1002E0009104A104B10429F7FF90EF90DF90CF9023
:1002F000BF90AF909F908F9008951F920F920FB66E
:100300000F9211242F933F938F939F93AF93BF939B
:100310008091010190910201A0910301B09104012B
:100320003091000123E0230F2D3758F50196A11DD0
:10033000B11D209300018093010190930201A093CD
:100340000301B09304018091050190910601A091F1
:100350000701B09108010196A11DB11D809305010F
:1003600090930601A0930701B0930801BF91AF914C
:100370009F918F913F912F910F900FBE0F901F90E3
:10038000189526E8230F0296A11DB11DD2CF7894AF
:1003900084B5826084BD84B5816084BD85B582608A
:1003A00085BD85B5816085BD80916E00816080933B
:1003B0006E001092810080918100826080938100A4
:1003C00080918100816080938100809180008160B4
:1003D000809380008091B10084608093B10080910F
:1003E000B00081608093B00080917A008460809337
:1003F0007A0080917A00826080937A0080917A00FE
:10040000816080937A0080917A00806880937A007E
:100410001092C10060E080E00E94F50060E081E0A1
:100420000E94F50061E082E00E94F50061E083E057
:100430000E94F50061E084E00E94F50061E085E043
:100440000E94F50061E086E00E94F50061E087E02F
:100450000E94F50061E088E00E94F50061E089E01B
:100460000E94F50000E010E080E00E949E00EC0198
:1004700081E00E949E00209709F04FC0009731F55F
:1004800060E082E00E94C70060E083E00E94C70055
:1004900060E084E00E94C70060E085E00E94C70041
:1004A00060E086E00E94C70060E087E00E94C7002D
:1004B00060E088E00E94C70060E089E00E94C70019
:1004C0000115110589F20E940000CECF0197C1F7F6
:1004D00061E082E00E94C70061E083E00E94C70003
:1004E00061E084E00E94C70061E085E00E94C700EF
:1004F00064EF71E080E090E00E944B0160E086E0F4
:100500000E94C70060E087E00E94C70060E088E0CA
:100510000E94C70060E089E028C0219789F6009713
:1005200069F561E086E00E94C70061E087E00E9413
:10053000C70061E088E00E94C70061E089E00E9496
:10054000C70064EF71E080E090E00E944B0160E042
:1005500082E00E94C70060E083E00E94C70060E084
:1005600084E00E94C70060E085E00E94C70068EE5A
:1005700073E080E090E00E944B01A2CF019709F068
:100580009FCF61E082E00E94C70061E083E00E94AB
:10059000C70061E084E00E94C70061E085E00E943E
:1005A000C70064EF71E080E090E00E944B0161E0E1
:1005B00086E00E94C70061E087E00E94C70061E01A
:0E05C00088E00E94C70061E0A6CFF894FFCF4C
:107E0000112484B714BE81FFF0D085E080938100F7
:107E100082E08093C00088E18093C10086E0809377
:107E2000C20080E18093C4008EE0C9D0259A86E02C
:107E300020E33CEF91E0309385002093840096BBD3
:107E4000B09BFECF1D9AA8958150A9F7CC24DD24C4
:107E500088248394B5E0AB2EA1E19A2EF3E0BF2EE7
:107E6000A2D0813461F49FD0082FAFD0023811F036
:107E7000013811F484E001C083E08DD089C08234E0
:107E800011F484E103C0853419F485E0A6D080C0E4
:107E9000853579F488D0E82EFF2485D0082F10E0AE
:107EA000102F00270E291F29000F111F8ED06801E7
:107EB0006FC0863521F484E090D080E0DECF843638
:107EC00009F040C070D06FD0082F6DD080E0C81688
:107ED00080E7D80618F4F601B7BEE895C0E0D1E017
:107EE00062D089930C17E1F7F0E0CF16F0E7DF06D8
:107EF00018F0F601B7BEE89568D007B600FCFDCFD4
:107F0000A601A0E0B1E02C9130E011968C91119780
:107F100090E0982F8827822B932B1296FA010C0160
:107F200087BEE89511244E5F5F4FF1E0A038BF0790
:107F300051F7F601A7BEE89507B600FCFDCF97BE46
:107F4000E89526C08437B1F42ED02DD0F82E2BD052
:107F50003CD0F601EF2C8F010F5F1F4F84911BD097
:107F6000EA94F801C1F70894C11CD11CFA94CF0C13
:107F7000D11C0EC0853739F428D08EE10CD085E9AC
:107F80000AD08FE07ACF813511F488E018D01DD067
:107F900080E101D065CF982F8091C00085FFFCCF94
:107FA0009093C60008958091C00087FFFCCF809118
:107FB000C00084FD01C0A8958091C6000895E0E648
:107FC000F0E098E1908380830895EDDF803219F02E
:107FD00088E0F5DFFFCF84E1DECF1F93182FE3DFCA
:107FE0001150E9F7F2DF1F91089580E0E8DFEE27F6
:047FF000FF270994CA
:027FFE00040479
:0400000300007E007B
:00000001FF
