:100000000C945D000C9485000C9485000C94850084
:100010000C9485000C9485000C9485000C9485004C
:100020000C9485000C9485000C9485000C9485003C
:100030000C9485000C9485000C9485000C9485002C
:100040000C947C030C9485000C9485000C94850022
:100050000C9485000C9485000C9485000C9485000C
:100060000C9485000C9485000000000024002700FB
:100070002A0000000000250028002B0004040404CE
:100080000404040402020202020203030303030342
:10009000010204081020408001020408102001021F
:1000A00004081020000000080002010000030407FB
:1000B0000000000000000000FA0411241FBECFEF72
:1000C000D8E0DEBFCDBF11E0A0E0B1E0E6EEFCE09D
:1000D00002C005900D92AC32B107D9F721E0ACE235
:1000E000B1E001C01D92AD34B207E1F710E0CDE5FB
:1000F000D0E004C02197FE010E946B06CC35D107E9
:10010000C9F70E94C6030C9471060C940000AF92CC
:10011000BF92CF92DF92EF92FF920F931F93CF93F4
:10012000DF936C017B018B01040F151FEB015E0156
:10013000AE18BF08C017D10759F06991D601ED91EB
:10014000FC910190F081E02DC6010995892B79F78A
:10015000C501DF91CF911F910F91FF90EF90DF903C
:10016000CF90BF90AF90089590E0FC01EC55FF4F09
:100170002491FC01E057FF4F3491FC01E458FF4FFC
:10018000E491EE23C9F0222339F0233001F1A8F4E1
:10019000213019F1223029F1F0E0EE0FFF1FEE5867
:1001A000FF4FA591B4918FB7F894EC91611126C0DF
:1001B00030953E233C938FBF08952730A9F0283017
:1001C000C9F0243049F7809180008F7D03C0809171
:1001D00080008F7780938000DFCF84B58F7784BDD8
:1001E000DBCF84B58F7DFBCF8091B0008F7780937C
:1001F000B000D2CF8091B0008F7DF9CF3E2BDACF07
:10020000CF93DF9390E0FC01E057FF4F2491845897
:100210009F4FFC0184918823D1F090E0880F991FB3
:10022000FC01E859FF4FA591B491FC01EE58FF4F36
:10023000C591D49161110EC09FB7F8948C91E22FB3
:10024000E0958E238C932881E223E8839FBFDF9182
:10025000CF9108958FB7F894EC91E22BEC938FBF78
:10026000F6CF8E50806480937C0080917A00806409
:1002700080937A0080917A0086FDFCCF809178008F
:100280009091790008953FB7F89480913101909151
:100290003201A0913301B091340126B5A89B05C06D
:1002A0002F3F19F00196A11DB11D3FBFBA2FA92FF5
:1002B000982F8827BC01CD01620F711D811D911DF2
:1002C00042E0660F771F881F991F4A95D1F708955E
:1002D0008F929F92AF92BF92CF92DF92EF92FF9256
:1002E0004B015C010E9443016B017C010E944301B0
:1002F0006C197D098E099F09683E7340810591053F
:10030000A8F321E0821A9108A108B10888EEC80E6E
:1003100083E0D81EE11CF11C81149104A104B104F6
:1003200029F7FF90EF90DF90CF90BF90AF909F9014
:100330008F900895089590E080E008958F929F92A5
:10034000AF92BF920F931F93CF93DF93CDB7DEB7DA
:10035000A1970FB6F894DEBF0FBECDBF19A24230F1
:1003600008F44AE08E010F5D1F4F842E912CB12CB2
:10037000A12CA50194010E944906E62FB901CA01EA
:10038000EA3044F5E05DD801EE938D01232B242B58
:10039000252B79F790E080E0109769F0FD0101903E
:1003A0000020E9F73197AF014A1B5B0BBD0185E3E4
:1003B00091E00E948700A1960FB6F894DEBF0FBEB1
:1003C000CDBFDF91CF911F910F91BF90AF909F90C4
:1003D0008F900895E95CD7CFFC0101900020E9F7E8
:1003E0003197AF01481B590BBC0185E391E00C9498
:1003F0008700CF93DF93EC0160E08E810E94B40010
:1004000061E08E810E94B40060E08E810E94B400A1
:100410008BE891E00197F1F7DF91CF910895CF92AA
:10042000DF92EF92FF920F931F93CF93DF936C01B4
:100430007C0187E0E80EF11CD0E0C0E0062F10E060
:10044000B8010C2E02C0759567950A94E2F76170A9
:10045000F70181917F010E94B4002196C430D1053B
:1004600079F7C601DF91CF911F910F91FF90EF9027
:10047000DF90CF900C94F901CF92DF92EF92FF9230
:100480000F931F93CF93DF93EC01F62E642F8C8193
:100490000E94B4008D818F3F19F060E00E94B4008B
:1004A0000F2D10E08F8584FF25C06E0187E0C80EF8
:1004B000D11CF12CE12CB8010E2C02C0759567956A
:1004C0000A94E2F76170F60181916F010E94B40015
:1004D000FFEFEF1AFF0A88E0E816F10461F7CE019A
:1004E000DF91CF911F910F91FF90EF90DF90CF9010
:1004F0000C94F901B80184E0759567958A95E1F748
:10050000CE010E940F026F2DCE01DF91CF911F917E
:100510000F91FF90EF90DF90CF900C940F0240E08E
:10052000682F85E391E00C943C0281E00E948F02E9
:100530008BE39FE10197F1F70895CF93DF9382302A
:1005400029F490914401986090934401809348016C
:100550001092490180E480934A0180E180934B012D
:1005600080E580934C0161E0809139010E94000197
:1005700080913A018F3F19F061E00E94000161E033
:1005800080913B010E940001C5E3D1E09E0125530B
:1005900031408091440184FD0BC084E090E02196BD
:1005A0002817390744F461E08E810E940001EECFE4
:1005B00088E090E0F4CF8BE39DE00197F1F760E0F5
:1005C000809139010E94B40060E080913B010E945B
:1005D000B40080913A018F3F19F060E00E94B400AE
:1005E0008091440184FD34C063E085E391E00E9482
:1005F0000F02CBE4D6E4CE010197F1F763E085E387
:1006000091E00E940F022197F1F763E085E391E00A
:100610000E940F0283E592E00197F1F762E085E323
:1006200091E00E940F028091440180620E948F023B
:1006300084E0809345018CE00E948F020E94950225
:1006400082E08093460186E0DF91CF910C948F0287
:1006500080620E948F028BE496E40197F1F780910B
:10066000440180620E948F0283E592E00197F1F7D6
:100670008091440180620E948F02D5CF9091480101
:10068000691710F06FEF690FE62FF0E0EB5CFE4F9B
:100690009489890F80680C948F0241E00E943C028B
:1006A00081E090E00895CF92DF92EF92FF926C018B
:1006B000990FEE08FF08F7FE16C041E06DE285E3F2
:1006C00091E00E943C0266277727CB016C197D09D7
:1006D0008E099F094AE00E949E010196FF90EF90CB
:1006E000DF90CF9008954AE0C701B601FF90EF90E8
:1006F000DF90CF900C949E011F920F920FB60F9235
:1007000011242F933F938F939F93AF93BF93809127
:100710002D0190912E01A0912F01B09130013091C7
:100720002C0123E0230F2D3758F50196A11DB11D93
:1007300020932C0180932D0190932E01A0932F01E3
:10074000B09330018091310190913201A091330139
:10075000B09134010196A11DB11D80933101909398
:100760003201A0933301B0933401BF91AF919F91B7
:100770008F913F912F910F900FBE0F901F90189562
:1007800026E8230F0296A11DB11DD2CF789484B51F
:10079000826084BD84B5816084BD85B5826085BD7D
:1007A00085B5816085BD80916E00816080936E000B
:1007B00010928100809181008260809381008091FD
:1007C00081008160809381008091800081608093AE
:1007D00080008091B10084608093B1008091B0006E
:1007E00081608093B00080917A00846080937A0069
:1007F00080917A00826080937A0080917A00816093
:1008000080937A0080917A00806880937A001092B9
:10081000C10060E083E10E94000160E081E10E948C
:10082000000160E08FE00E94000182E00E949D02D2
:1008300061E087E00E94000161E086E00E94000123
:1008400061E085E00E94000161E084E00E94000117
:1008500061E083E00E94000161E082E00E9400010B
:1008600000E010E00E94950260E080E00E943E03FC
:100870008CE091E00E94EC0161E080E00E943E0388
:1008800087E191E00E94EC0168EE73E080E090E087
:100890000E9468010E94950283E10E943101EC01EF
:1008A00060E080E00E943E038EE191E00E94EC0156
:1008B00061E080E00E943E03CE010E94530381E18B
:1008C0000E943101BC01990F880B990B0E945005C1
:1008D00025EB37E348EF5EE30E94B4050E9418055C
:1008E0004B016B0160E084E00E943E0382E291E0F4
:1008F0000E94EC0161E084E00E943E03C4010E947A
:1009000053038FE00E9431017C0160E088E00E9487
:100910003E0387E291E00E94EC0161E088E00E94E2
:100920003E03C7010E94530360ED77E080E090E052
:100930000E946801C039D1400CF047C061E083E0FB
:100940000E94B40060E082E00E94B40068EE73E0B0
:1009500080E090E00E94680160E083E00E94B400C3
:1009600061E082E00E94B40068EE73E080E090E015
:100970000E94680187E2C816D10484F161E085E035
:100980000E94B40061E084E00E94B40068EE73E06D
:1009900080E090E00E94680181EAE816F10424F109
:1009A00061E087E00E94B40061E086E00E94B4004C
:1009B00068EE73E080E090E00E9468010115110587
:1009C00009F450CF0E9400004DCF60E083E00E9408
:1009D000B40060E082E00E94B400CCCF60E085E02B
:1009E0000E94B40060E0CFCF60E087E00E94B400D6
:1009F00060E0DBCFE5E3F1E01382128284E091E076
:100A0000918380838DE084838FEF85838CE0868360
:100A10008BE087838AE0808789E0818788E082870E
:100A20001386148615861686178681E00C949D021F
:100A30000E941F056894B1110C94AE0508950E94A0
:100A4000930588F09F5798F0B92F9927B751B0F0C8
:100A5000E1F0660F771F881F991F1AF0BA95C9F742
:100A600014C0B13091F00E94AD05B1E008950C942E
:100A7000AD05672F782F8827B85F39F0B93FCCF3E1
:100A8000869577956795B395D9F73EF490958095BF
:100A9000709561957F4F8F4F9F4F0895E89409C0DF
:100AA00097FB3EF490958095709561957F4F8F4FA1
:100AB0009F4F9923A9F0F92F96E9BB279395F695B7
:100AC000879577956795B795F111F8CFFAF4BB0F35
:100AD00011F460FF1BC06F5F7F4F8F4F9F4F16C099
:100AE000882311F096E911C0772321F09EE8872F23
:100AF000762F05C0662371F096E8862F70E060E0DF
:100B00002AF09A95660F771F881FDAF7880F969557
:100B1000879597F9089557FD9058440F551F59F040
:100B20005F3F71F04795880F97FB991F61F09F3FDA
:100B300079F087950895121613061406551FF2CF03
:100B40004695F1DF08C0161617061806991FF1CF53
:100B500086957105610508940895E894BB2766277A
:100B60007727CB0197F908950E94C7050C943806A2
:100B70000E942A0638F00E94310620F0952311F0D9
:100B80000C9421060C94270611240C94AE050E94A7
:100B90008B0570F3959FC1F3950F50E0551F629F31
:100BA000F001729FBB27F00DB11D639FAA27F00DC6
:100BB000B11DAA1F649F6627B00DA11D661F829FED
:100BC0002227B00DA11D621F739FB00DA11D621FD2
:100BD000839FA00D611D221F749F3327A00D611DEF
:100BE000231F849F600D211D822F762F6A2F1124D1
:100BF0009F5750409AF0F1F088234AF0EE0FFF1F04
:100C0000BB1F661F771F881F91505040A9F79E3F5A
:100C1000510580F00C9421060C94AE055F3FE4F37F
:100C2000983ED4F3869577956795B795F795E795B0
:100C30009F5FC1F7FE2B880F911D9695879597F9B9
:100C4000089597F99F6780E870E060E008959FEF4E
:100C500080EC089500240A94161617061806090653
:100C6000089500240A941216130614060506089522
:100C7000092E0394000C11F4882352F0BB0F40F4AA
:100C8000BF2B11F460FF04C06F5F7F4F8F4F9F4FEA
:100C90000895A1E21A2EAA1BBB1BFD010DC0AA1FBD
:100CA000BB1FEE1FFF1FA217B307E407F50720F0D5
:100CB000A21BB30BE40BF50B661F771F881F991F50
:100CC0001A9469F760957095809590959B01AC0199
:100CD000BD01CF010895EE0FFF1F0590F491E02DA7
:060CE0000994F894FFCF17
:100CE600000000004D0387009B019A01534D4152BD
:100CF6005420484F4D450053595354454D004C44DC
:0C0D0600520054454D500047415300007E
:00000001FF
