:100000000C9462000C948A000C948A000C948A0070
:100010000C948A000C948A000C948A000C948A0038
:100020000C948A000C948A000C948A000C948A0028
:100030000C948A000C948A000C948A000C948A0018
:100040000C947A030C948A000C948A000C948A0015
:100050000C948A000C948A000C948A000C948A00F8
:100060000C948A000C948A000000000024002700F1
:100070002A0000000000250028002B0000000000DE
:1000800023002600290004040404040404040202DA
:100090000202020203030303030301020408102007
:1000A0004080010204081020010204081020000012
:1000B0000008000201000003040700000000000027
:1000C0000000250511241FBECFEFD8E0DEBFCDBF55
:1000D00011E0A0E0B1E0EAEDFAE002C005900D9277
:1000E000A634B107D9F721E0A6E4B1E001C01D9222
:1000F000A736B207E1F710E0C2E6D0E004C02197CE
:10010000FE010E946505C136D107C9F70E94C403EC
:100110000C946B050C940000AF92BF92CF92DF92CB
:10012000EF92FF920F931F93CF93DF936C017B01AC
:100130008B01040F151FEB015E01AE18BF08C0173D
:10014000D10759F06991D601ED91FC910190F081B0
:10015000E02DC6010995892B79F7C501DF91CF9173
:100160001F910F91FF90EF90DF90CF90BF90AF90D5
:100170000895833081F028F4813099F08230A9F01D
:1001800008958730A9F08830C9F08430B1F48091A7
:1001900080008F7D03C0809180008F7780938000E6
:1001A000089584B58F7784BD089584B58F7DFBCF86
:1001B0008091B0008F778093B00008958091B00057
:1001C0008F7DF9CF1F93CF93DF93282F30E0F90174
:1001D000E255FF4F8491F901E656FF4FD491F901A2
:1001E000EA57FF4FC491CC23A9F0162F81110E942A
:1001F000B900EC2FF0E0EE0FFF1FEE58FF4FA59176
:10020000B4918FB7F894EC91111108C0D095DE230A
:10021000DC938FBFDF91CF911F910895DE2BF8CF34
:10022000CF93DF9390E0FC01E656FF4F24918A576D
:100230009F4FFC0184918823D1F090E0880F991F93
:10024000FC01E859FF4FA591B491FC01EE58FF4F16
:10025000C591D49161110EC09FB7F8948C91E22F93
:10026000E0958E238C932881E223E8839FBFDF9162
:10027000CF9108958FB7F894EC91E22BEC938FBF58
:10028000F6CF3FB7F89480914B0190914C01A0912B
:100290004D01B0914E0126B5A89B05C02F3F19F026
:1002A0000196A11DB11D3FBFBA2FA92F982F8827F6
:1002B000BC01CD01620F711D811D911D42E0660FD1
:1002C000771F881F991F4A95D1F708958F929F92A3
:1002D000AF92BF92CF92DF92EF92FF924B015C01FF
:1002E0000E9441016B017C010E9441016C197D0952
:1002F0008E099F09683E734081059105A8F321E0AE
:10030000821A9108A108B10888EEC80E83E0D81EB1
:10031000E11CF11C81149104A104B10429F7FF90A0
:10032000EF90DF90CF90BF90AF909F908F90089507
:10033000089590E080E008958F929F92AF92BF92CF
:100340000F931F93CF93DF93CDB7DEB7A1970FB66F
:10035000F894DEBF0FBECDBF19A2423008F44AE0C8
:100360008E010F5D1F4F842E912CB12CA12CA50165
:1003700094010E944305E62FB901CA01EA3044F511
:10038000E05DD801EE938D01232B242B252B79F7EB
:1003900090E080E0109769F0FD0101900020E9F7FE
:1003A0003197AF014A1B5B0BBD018FE491E00E94C6
:1003B0008C00A1960FB6F894DEBF0FBECDBFDF91C3
:1003C000CF911F910F91BF90AF909F908F90089504
:1003D000E95CD7CFFC0101900020E9F73197AF012C
:1003E000481B590BBC018FE491E00C948C00CF9317
:1003F000DF93EC0160E08E810E94E20061E08E817B
:100400000E94E20060E08E810E94E2008BE891E0B1
:100410000197F1F7DF91CF910895CF92DF92EF929C
:10042000FF920F931F93CF93DF936C017C0187E0C2
:10043000E80EF11CD0E0C0E0062F10E0B8010C2E51
:1004400002C0759567950A94E2F76170F701819192
:100450007F010E94E2002196C430D10579F7C601E0
:10046000DF91CF911F910F91FF90EF90DF90CF9090
:100470000C94F701CF92DF92EF92FF920F931F93AC
:10048000CF93DF93EC01F62E642F8C810E94E20063
:100490008D818F3F19F060E00E94E2000F2D10E087
:1004A0008F8584FF25C06E0187E0C80ED11CF12C1A
:1004B000E12CB8010E2C02C0759567950A94E2F7FD
:1004C0006170F60181916F010E94E200FFEFEF1A67
:1004D000FF0A88E0E816F10461F7CE01DF91CF91C1
:1004E0001F910F91FF90EF90DF90CF900C94F70148
:1004F000B80184E0759567958A95E1F7CE010E9471
:100500000D026F2DCE01DF91CF911F910F91FF90C2
:10051000EF90DF90CF900C940D0240E0682F8FE4B5
:1005200091E00C943A0281E00E948D028BE39FE1FE
:100530000197F1F70895CF93DF93823029F49091DA
:100540005E01986090935E01809362011092630156
:1005500080E48093640180E18093650180E580936D
:10056000660161E0809153010E9410018091540165
:100570008F3F19F061E00E94100161E08091550108
:100580000E941001CFE4D1E09E012F5431408091B0
:100590005E0184FD0BC084E090E0219628173907A6
:1005A00044F461E08E810E941001EECF88E090E07B
:1005B000F4CF8BE39DE00197F1F760E08091530168
:1005C0000E94E20060E0809155010E94E20080916B
:1005D00054018F3F19F060E00E94E20080915E01BB
:1005E00084FD34C063E08FE491E00E940D02CBE40F
:1005F000D6E4CE010197F1F763E08FE491E00E9429
:100600000D022197F1F763E08FE491E00E940D0263
:1006100083E592E00197F1F762E08FE491E00E94B8
:100620000D0280915E0180620E948D0284E08093C1
:100630005F018CE00E948D020E94930282E0809311
:10064000600186E0DF91CF910C948D0280620E9460
:100650008D028BE496E40197F1F780915E01806250
:100660000E948D0283E592E00197F1F780915E018F
:1006700080620E948D02D5CF90916201691710F0BF
:100680006FEF690FE62FF0E0E15BFE4F9489890F71
:1006900080680C948D0241E00E943A0281E090E073
:1006A0000895CF92DF92EF92FF926C01990FEE08BE
:1006B000FF08F7FE16C041E06DE28FE491E00E9472
:1006C0003A0266277727CB016C197D098E099F09AD
:1006D0004AE00E949C010196FF90EF90DF90CF903E
:1006E00008954AE0C701B601FF90EF90DF90CF90E8
:1006F0000C949C011F920F920FB60F9211242F930E
:100700003F938F939F93AF93BF93809147019091B5
:100710004801A0914901B0914A013091460123E07E
:10072000230F2D3758F50196A11DB11D20934601C9
:100730008093470190934801A0934901B0934A01E7
:1007400080914B0190914C01A0914D01B0914E01CF
:100750000196A11DB11D80934B0190934C01A09374
:100760004D01B0934E01BF91AF919F918F913F91F9
:100770002F910F900FBE0F901F90189526E8230F12
:100780000296A11DB11DD2CF789484B5826084BD3C
:1007900084B5816084BD85B5826085BD85B5816085
:1007A00085BD80916E00816080936E001092810003
:1007B00080918100826080938100809181008160BE
:1007C000809381008091800081608093800080917F
:1007D000B10084608093B1008091B000816080930B
:1007E000B00080917A00846080937A0080917A00D2
:1007F000826080937A0080917A00816080937A0091
:1008000080917A00806880937A001092C10060E045
:1008100083E10E94100182E00E949B0261E087E078
:100820000E94100161E085E00E94100160E083E019
:100830000E94100191EBE92E90E0F92E2DE9C22ED5
:1008400020E0D22E39E8A32E30E0B32E45E4742EFA
:1008500050E0852E50E0952E0E949302F70184917E
:10086000F601C491F501D491DD2309F4D9C08111B9
:100870000E94B900ED2FF0E0EE0FFF1FE458FF4F8C
:10088000A591B4918C91C82391E080E009F490E0A7
:10089000C92FD82F60E080E00E943C038CE091E0FB
:1008A0000E94EA0161E080E00E943C03CE010E94C8
:1008B000510370927C0080917A00806480937A006A
:1008C00080917A0086FDFCCF00917800109179002C
:1008D00060E08DE00E943C038FE091E00E94EA011D
:1008E00061E08DE00E943C03C8010E94510368EE64
:1008F00073E080E090E00E946601219709F093C0C8
:1009000061E087E00E94E20068EC70E080E090E047
:100910000E94660160E087E00E94E20068EC70E0FF
:1009200080E090E00E94660161E087E00E94E200C2
:1009300068EC70E080E090E00E94660160E087E093
:100940000E94E20068EC70E080E090E00E946601A6
:1009500061E087E00E94E20068EC70E080E090E0F7
:100960000E94660160E087E00E94E20068EC70E0AF
:1009700080E090E00E94660161E087E00E94E20072
:1009800068EC70E080E090E00E94660160E087E043
:100990000E94E20068EC70E080E090E00E94660156
:1009A00061E087E00E94E20068EC70E080E090E0A7
:1009B0000E94660160E087E00E94E20068EC70E05F
:1009C00080E090E00E9466010E94930283E191E042
:1009D0000E94EA018CE10E948D0268EE73E080E0E3
:1009E00090E00E9466010937110534F10E949302DC
:1009F00061E085E00E94E2008AE291E00E94EA0163
:100A00008CE10E948D0268EE73E080E090E00E942D
:100A100066018114910409F41FCF0E9400001CCFCD
:100A2000D0E0C0E037CF0E94930260E087E00E94F0
:100A3000E2008FE191E0CCCF0E94930260E085E07C
:100A40000E94E20087E391E0D9CFEFE4F1E0138266
:100A5000128284E091E0918380838DE084838FEF24
:100A600085838CE086838BE087838AE0808789E0BA
:100A7000818788E0828713861486158616861786F6
:100A800081E00C949B02A1E21A2EAA1BBB1BFD0164
:100A90000DC0AA1FBB1FEE1FFF1FA217B307E4075D
:100AA000F50720F0A21BB30BE40BF50B661F771FB5
:100AB000881F991F1A9469F7609570958095909595
:100AC0009B01AC01BD01CF010895EE0FFF1F059002
:0A0AD000F491E02D0994F894FFCF93
:100ADA00000000004B038C0099019801495200471D
:100AEA0061730048756D616E20466F756E64004CC7
:100AFA004544206973204F46460042757A7A6572EA
:100B0A00206973204F4E0042757A7A6572206973A4
:060B1A00204F46460000DA
:00000001FF
