:100000000C945D000C9485000C9485000C94850084
:100010000C9485000C9485000C9485000C9485004C
:100020000C9485000C9485000C9485000C9485003C
:100030000C9485000C9485000C9485000C9485002C
:100040000C9480030C9485000C9485000C9485001E
:100050000C9485000C9485000C9485000C9485000C
:100060000C9485000C9485000000000024002700FB
:100070002A0000000000250028002B0004040404CE
:100080000404040402020202020203030303030342
:10009000010204081020408001020408102001021F
:1000A00004081020000000080002010000030407FB
:1000B0000000000000000000980411241FBECFEFD4
:1000C000D8E0DEBFCDBF11E0A0E0B1E0E2E2FCE0AD
:1000D00002C005900D92A635B107D9F721E0A6E53B
:1000E000B1E001C01D92A737B207E1F710E0CDE5FE
:1000F000D0E004C02197FE010E940906CC35D1074B
:10010000C9F70E94CA030C940F060C940000AF922A
:10011000BF92CF92DF92EF92FF920F931F93CF93F4
:10012000DF936C017B018B01040F151FEB015E0156
:10013000AE18BF08C017D10759F06991D601ED91EB
:10014000FC910190F081E02DC6010995892B79F78A
:10015000C501DF91CF911F910F91FF90EF90DF903C
:10016000CF90BF90AF90089590E0FC01EC55FF4F09
:100170002491FC01E057FF4F3491FC01E458FF4FFC
:10018000E491EE23C9F0222339F0233001F1A8F4E1
:10019000213019F1223029F1F0E0EE0FFF1FEE5867
:1001A000FF4FA591B4918FB7F894EC91611126C0DF
:1001B00030953E233C938FBF08952730A9F0283017
:1001C000C9F0243049F7809180008F7D03C0809171
:1001D00080008F7780938000DFCF84B58F7784BDD8
:1001E000DBCF84B58F7DFBCF8091B0008F7780937C
:1001F000B000D2CF8091B0008F7DF9CF3E2BDACF07
:10020000CF93DF9390E0FC01E057FF4F2491845897
:100210009F4FFC0184918823D1F090E0880F991FB3
:10022000FC01E859FF4FA591B491FC01EE58FF4F36
:10023000C591D49161110EC09FB7F8948C91E22FB3
:10024000E0958E238C932881E223E8839FBFDF9182
:10025000CF9108958FB7F894EC91E22BEC938FBF78
:10026000F6CF8E50806480937C0080917A00806409
:1002700080937A0080917A0086FDFCCF809178008F
:100280009091790008953FB7F89480915B01909127
:100290005C01A0915D01B0915E0126B5A89B05C0EF
:1002A0002F3F19F00196A11DB11D3FBFBA2FA92FF5
:1002B000982F8827BC01CD01620F711D811D911DF2
:1002C00042E0660F771F881F991F4A95D1F708955E
:1002D0008F929F92AF92BF92CF92DF92EF92FF9256
:1002E0000E9443014B015C0188EEC82E83E0D82EAA
:1002F000E12CF12C0E944301681979098A099B09B4
:10030000683E734081059105A8F321E0C21AD10827
:10031000E108F10888EE880E83E0981EA11CB11C4C
:10032000C114D104E104F10429F7FF90EF90DF90AC
:10033000CF90BF90AF909F908F900895089590E0D8
:1003400080E008958F929F92AF92BF920F931F9378
:10035000CF93DF93CDB7DEB7A1970FB6F894DEBF8A
:100360000FBECDBF19A2423008F44AE08E010F5DE6
:100370001F4F842E912CB12CA12CA50194010E9419
:10038000E705E62FB901CA01EA3044F5E05DD8017E
:10039000EE938D01232B242B252B79F790E080E021
:1003A000109769F0FD0101900020E9F73197AF0146
:1003B0004A1B5B0BBD018FE591E00E948700A1966F
:1003C0000FB6F894DEBF0FBECDBFDF91CF911F9166
:1003D0000F91BF90AF909F908F900895E95CD7CF19
:1003E000FC0101900020E9F73197AF01481B590B40
:1003F000BC018FE591E00C948700CF93DF93EC0173
:1004000060E08E810E94B40061E08E810E94B400A1
:1004100060E08E810E94B4008BE891E00197F1F7D3
:10042000DF91CF910895CF92DF92EF92FF920F93D9
:100430001F93CF93DF936C017C0187E0E80EF11CE2
:10044000D0E0C0E0062F10E0B8010C2E02C0759578
:1004500067950A94E2F76170F70181917F010E942C
:10046000B4002196C430D10579F7C601DF91CF9150
:100470001F910F91FF90EF90DF90CF900C94FD01B2
:10048000CF92DF92EF92FF920F931F93CF93DF9360
:10049000EC01F62E642F8C810E94B4008D818F3F79
:1004A00019F060E00E94B4000F2D10E08F8584FFEA
:1004B00025C06E0187E0C80ED11CF12CE12CB801DB
:1004C0000E2C02C0759567950A94E2F76170F601EB
:1004D00081916F010E94B400FFEFEF1AFF0A88E0DC
:1004E000E816F10461F7CE01DF91CF911F910F91D2
:1004F000FF90EF90DF90CF900C94FD01B80184E065
:10050000759567958A95E1F7CE010E9413026F2DCC
:10051000CE01DF91CF911F910F91FF90EF90DF906F
:10052000CF900C94130240E0682F8FE591E00C947B
:10053000400281E00E9493028BE39FE10197F1F773
:100540000895CF93DF93823029F490916E019860E3
:1005500090936E01809372011092730180E48093F6
:10056000740180E18093750180E58093760161E0FC
:10057000809163010E940001809164018F3F19F016
:1005800061E00E94000161E0809165010E9400012C
:10059000CFE5D1E09E012F55314080916E0184FD61
:1005A0000BC084E090E021962817390744F461E0FD
:1005B0008E810E940001EECF88E090E0F4CF8BE3C3
:1005C0009DE00197F1F760E0809163010E94B40023
:1005D00060E0809165010E94B400809164018F3FCA
:1005E00019F060E00E94B40080916E0184FD34C077
:1005F00063E08FE591E00E941302CBE4D6E4CE01E4
:100600000197F1F763E08FE591E00E9413022197D3
:10061000F1F763E08FE591E00E94130283E592E039
:100620000197F1F762E08FE591E00E94130280915B
:100630006E0180620E94930284E080936F018CE0DF
:100640000E9493020E94990282E08093700186E0EA
:10065000DF91CF910C94930280620E9493028BE40D
:1006600096E40197F1F780916E0180620E949302F7
:1006700083E592E00197F1F780916E0180620E941C
:100680009302D5CF90917201691710F06FEF690F47
:10069000E62FF0E0E15AFE4F9489890F80680C94B0
:1006A000930241E00E94400281E090E00895CF92E1
:1006B000DF92EF92FF926C01990FEE08FF08F7FEB0
:1006C00016C041E06DE28FE591E00E94400266278E
:1006D0007727CB016C197D098E099F094AE00E949A
:1006E000A2010196FF90EF90DF90CF9008954AE02D
:1006F000C701B601FF90EF90DF90CF900C94A2015C
:100700001F920F920FB60F9211242F933F938F9346
:100710009F93AF93BF938091570190915801A091FF
:100720005901B0915A013091560123E0230F2D3722
:1007300058F50196A11DB11D2093560180935701D4
:1007400090935801A0935901B0935A0180915B0195
:1007500090915C01A0915D01B0915E010196A11D97
:10076000B11D80935B0190935C01A0935D01B093F8
:100770005E01BF91AF919F918F913F912F910F900B
:100780000FBE0F901F90189526E8230F0296A11D0B
:10079000B11DD2CF789484B5826084BD84B5816068
:1007A00084BD85B5826085BD85B5816085BD80913C
:1007B0006E00816080936E001092810080918100B4
:1007C00082608093810080918100816080938100AC
:1007D000809180008160809380008091B10084606E
:1007E0008093B1008091B00081608093B0008091CF
:1007F0007A00846080937A0080917A00826080938E
:100800007A0080917A00816080937A0080917A00EA
:10081000806880937A001092C10060E081E10E94BC
:10082000000160E083E10E94000182E00E94A102D9
:1008300061E087E00E94000161E085E00E94000124
:1008400000E010E00E94990281E10E943101BC01A8
:10085000990F880B990B0E94EE0425EB37E348EFC4
:100860005EE30E9452050E94B6046B0160E080E0E6
:100870000E9442038CE091E00E94F00160E08DE074
:100880000E944203C6010E94570383E10E94310186
:10089000EC0161E080E00E94420388E191E00E9467
:1008A000F00161E08DE00E944203CE010E945703F7
:1008B0000E94680187E2C816D10444F10E9499029F
:1008C00061E087E00E94B40082E291E00E94F001C2
:1008D0008CE10E9493020E946801C039D140FCF46F
:1008E0000E94990261E085E00E94B4008CE391E0EF
:1008F0000E94F0018CE10E9493020E9468010115A0
:10090000110509F49FCF0E9400009CCF0E9499021C
:1009100060E087E00E94B4008FE291E0D7CF0E94B0
:10092000990260E085E00E94B4008AE491E0E0CFA3
:10093000EFE5F1E01382128284E091E091838083FD
:100940008DE084838FEF85838CE086838BE08783C3
:100950008AE0808789E0818788E082871386148611
:1009600015861686178681E00C94A1020E94BD04AC
:100970006894B1110C944C0508950E94310588F0DB
:100980009F5798F0B92F9927B751B0F0E1F0660F53
:10099000771F881F991F1AF0BA95C9F714C0B13094
:1009A00091F00E944B05B1E008950C944B05672F20
:1009B000782F8827B85F39F0B93FCCF386957795C3
:1009C0006795B395D9F73EF49095809570956195AC
:1009D0007F4F8F4F9F4F0895E89409C097FB3EF4D7
:1009E00090958095709561957F4F8F4F9F4F99237C
:1009F000A9F0F92F96E9BB279395F69587957795FA
:100A00006795B795F111F8CFFAF4BB0F11F460FFB9
:100A10001BC06F5F7F4F8F4F9F4F16C0882311F011
:100A200096E911C0772321F09EE8872F762F05C025
:100A3000662371F096E8862F70E060E02AF09A95C0
:100A4000660F771F881FDAF7880F9695879597F9B5
:100A5000089557FD9058440F551F59F05F3F71F0AE
:100A60004795880F97FB991F61F09F3F79F0879515
:100A70000895121613061406551FF2CF4695F1DF9E
:100A800008C0161617061806991FF1CF869571052E
:100A9000610508940895E894BB2766277727CB0162
:100AA00097F908950E9465050C94D6050E94C80523
:100AB00038F00E94CF0520F0952311F00C94BF056B
:100AC0000C94C50511240C944C050E94290570F363
:100AD000959FC1F3950F50E0551F629FF001729FE3
:100AE000BB27F00DB11D639FAA27F00DB11DAA1FF2
:100AF000649F6627B00DA11D661F829F2227B00D3F
:100B0000A11D621F739FB00DA11D621F839FA00DC9
:100B1000611D221F749F3327A00D611D231F849F19
:100B2000600D211D822F762F6A2F11249F57504070
:100B30009AF0F1F088234AF0EE0FFF1FBB1F661FEB
:100B4000771F881F91505040A9F79E3F510580F0B4
:100B50000C94BF050C944C055F3FE4F3983ED4F32E
:100B6000869577956795B795F795E7959F5FC1F758
:100B7000FE2B880F911D9695879597F9089597F903
:100B80009F6780E870E060E008959FEF80EC089533
:100B900000240A941616170618060906089500245C
:100BA0000A9412161306140605060895092E0394D6
:100BB000000C11F4882352F0BB0F40F4BF2B11F44A
:100BC00060FF04C06F5F7F4F8F4F9F4F0895A1E27A
:100BD0001A2EAA1BBB1BFD010DC0AA1FBB1FEE1FB7
:100BE000FF1FA217B307E407F50720F0A21BB30B02
:100BF000E40BF50B661F771F881F991F1A9469F77E
:100C000060957095809590959B01AC01BD01CF01D9
:100C10000895EE0FFF1F0590F491E02D0994F894CC
:020C2000FFCF04
:100C220000000000510387009F019E0154656D7012
:100C32006572617475726500496E74656E7369746C
:100C4200790054656D702069732048696768004DAA
:100C52006F746F72206973204F4646004C69676853
:100C620074206C766C204C6F77004C45442069737D
:060C7200204F4646000081
:107E0000112484B714BE81FFF0D085E080938100F7
:107E100082E08093C00088E18093C10086E0809377
:107E2000C20080E18093C4008EE0C9D0259A86E02C
:107E300020E33CEF91E0309385002093840096BBD3
:107E4000B09BFECF1D9AA8958150A9F7CC24DD24C4
:107E500088248394B5E0AB2EA1E19A2EF3E0BF2EE7
:107E6000A2D0813461F49FD0082FAFD0023811F036
:107E7000013811F484E001C083E08DD089C08234E0
:107E800011F484E103C0853419F485E0A6D080C0E4
:107E9000853579F488D0E82EFF2485D0082F10E0AE
:107EA000102F00270E291F29000F111F8ED06801E7
:107EB0006FC0863521F484E090D080E0DECF843638
:107EC00009F040C070D06FD0082F6DD080E0C81688
:107ED00080E7D80618F4F601B7BEE895C0E0D1E017
:107EE00062D089930C17E1F7F0E0CF16F0E7DF06D8
:107EF00018F0F601B7BEE89568D007B600FCFDCFD4
:107F0000A601A0E0B1E02C9130E011968C91119780
:107F100090E0982F8827822B932B1296FA010C0160
:107F200087BEE89511244E5F5F4FF1E0A038BF0790
:107F300051F7F601A7BEE89507B600FCFDCF97BE46
:107F4000E89526C08437B1F42ED02DD0F82E2BD052
:107F50003CD0F601EF2C8F010F5F1F4F84911BD097
:107F6000EA94F801C1F70894C11CD11CFA94CF0C13
:107F7000D11C0EC0853739F428D08EE10CD085E9AC
:107F80000AD08FE07ACF813511F488E018D01DD067
:107F900080E101D065CF982F8091C00085FFFCCF94
:107FA0009093C60008958091C00087FFFCCF809118
:107FB000C00084FD01C0A8958091C6000895E0E648
:107FC000F0E098E1908380830895EDDF803219F02E
:107FD00088E0F5DFFFCF84E1DECF1F93182FE3DFCA
:107FE0001150E9F7F2DF1F91089580E0E8DFEE27F6
:047FF000FF270994CA
:027FFE00040479
:0400000300007E007B
:00000001FF
